{"abi":[{"type":"constructor","inputs":[],"stateMutability":"nonpayable"},{"type":"function","name":"BURN_ADDRESS","inputs":[],"outputs":[{"name":"","type":"address","internalType":"address"}],"stateMutability":"view"},{"type":"function","name":"COOLDOWN_PERIOD","inputs":[],"outputs":[{"name":"","type":"uint256","internalType":"uint256"}],"stateMutability":"view"},{"type":"function","name":"addSlasher","inputs":[{"name":"slasher","type":"address","internalType":"address"}],"outputs":[],"stateMutability":"nonpayable"},{"type":"function","name":"getRequiredStakeUSD","inputs":[{"name":"agentType","type":"uint8","internalType":"uint8"}],"outputs":[{"name":"","type":"uint256","internalType":"uint256"}],"stateMutability":"pure"},{"type":"function","name":"getStake","inputs":[{"name":"agentId","type":"uint256","internalType":"uint256"}],"outputs":[{"name":"","type":"uint256","internalType":"uint256"}],"stateMutability":"view"},{"type":"function","name":"graduate","inputs":[{"name":"agentId","type":"uint256","internalType":"uint256"}],"outputs":[],"stateMutability":"nonpayable"},{"type":"function","name":"isStaked","inputs":[{"name":"agentId","type":"uint256","internalType":"uint256"}],"outputs":[{"name":"","type":"bool","internalType":"bool"}],"stateMutability":"view"},{"type":"function","name":"owner","inputs":[],"outputs":[{"name":"","type":"address","internalType":"address"}],"stateMutability":"view"},{"type":"function","name":"removeSlasher","inputs":[{"name":"slasher","type":"address","internalType":"address"}],"outputs":[],"stateMutability":"nonpayable"},{"type":"function","name":"requestWithdrawal","inputs":[{"name":"agentId","type":"uint256","internalType":"uint256"}],"outputs":[],"stateMutability":"nonpayable"},{"type":"function","name":"requiredStake","inputs":[{"name":"","type":"uint8","internalType":"uint8"}],"outputs":[{"name":"","type":"uint256","internalType":"uint256"}],"stateMutability":"view"},{"type":"function","name":"slash","inputs":[{"name":"agentId","type":"uint256","internalType":"uint256"},{"name":"whistleblower","type":"address","internalType":"address"}],"outputs":[],"stateMutability":"nonpayable"},{"type":"function","name":"slashers","inputs":[{"name":"","type":"address","internalType":"address"}],"outputs":[{"name":"","type":"bool","internalType":"bool"}],"stateMutability":"view"},{"type":"function","name":"stake","inputs":[{"name":"agentId","type":"uint256","internalType":"uint256"},{"name":"agentType","type":"uint8","internalType":"uint8"}],"outputs":[],"stateMutability":"payable"},{"type":"function","name":"stakes","inputs":[{"name":"","type":"uint256","internalType":"uint256"}],"outputs":[{"name":"amount","type":"uint256","internalType":"uint256"},{"name":"agentType","type":"uint8","internalType":"uint8"},{"name":"stakedAt","type":"uint256","internalType":"uint256"},{"name":"cooldownUnlock","type":"uint256","internalType":"uint256"},{"name":"staker","type":"address","internalType":"address"},{"name":"active","type":"bool","internalType":"bool"}],"stateMutability":"view"},{"type":"function","name":"totalBurned","inputs":[],"outputs":[{"name":"","type":"uint256","internalType":"uint256"}],"stateMutability":"view"},{"type":"function","name":"totalWhistleblowerPaid","inputs":[],"outputs":[{"name":"","type":"uint256","internalType":"uint256"}],"stateMutability":"view"},{"type":"function","name":"transferOwnership","inputs":[{"name":"newOwner","type":"address","internalType":"address"}],"outputs":[],"stateMutability":"nonpayable"},{"type":"function","name":"updateRequiredStake","inputs":[{"name":"agentType","type":"uint8","internalType":"uint8"},{"name":"newAmount","type":"uint256","internalType":"uint256"}],"outputs":[],"stateMutability":"nonpayable"},{"type":"function","name":"withdraw","inputs":[{"name":"agentId","type":"uint256","internalType":"uint256"}],"outputs":[],"stateMutability":"nonpayable"},{"type":"event","name":"Graduated","inputs":[{"name":"agentId","type":"uint256","indexed":true,"internalType":"uint256"},{"name":"amountReturned","type":"uint256","indexed":false,"internalType":"uint256"}],"anonymous":false},{"type":"event","name":"Slashed","inputs":[{"name":"agentId","type":"uint256","indexed":true,"internalType":"uint256"},{"name":"totalAmount","type":"uint256","indexed":false,"internalType":"uint256"},{"name":"whistleblowerReward","type":"uint256","indexed":false,"internalType":"uint256"},{"name":"burned","type":"uint256","indexed":false,"internalType":"uint256"},{"name":"whistleblower","type":"address","indexed":true,"internalType":"address"}],"anonymous":false},{"type":"event","name":"Staked","inputs":[{"name":"agentId","type":"uint256","indexed":true,"internalType":"uint256"},{"name":"staker","type":"address","indexed":true,"internalType":"address"},{"name":"amount","type":"uint256","indexed":false,"internalType":"uint256"},{"name":"agentType","type":"uint8","indexed":false,"internalType":"uint8"}],"anonymous":false},{"type":"event","name":"WithdrawRequested","inputs":[{"name":"agentId","type":"uint256","indexed":true,"internalType":"uint256"},{"name":"unlockTime","type":"uint256","indexed":false,"internalType":"uint256"}],"anonymous":false},{"type":"event","name":"Withdrawn","inputs":[{"name":"agentId","type":"uint256","indexed":true,"internalType":"uint256"},{"name":"staker","type":"address","indexed":true,"internalType":"address"},{"name":"amount","type":"uint256","indexed":false,"internalType":"uint256"}],"anonymous":false},{"type":"error","name":"AlreadyStaked","inputs":[]},{"type":"error","name":"CooldownActive","inputs":[{"name":"unlockTime","type":"uint256","internalType":"uint256"}]},{"type":"error","name":"DisputeActive","inputs":[]},{"type":"error","name":"InsufficientStake","inputs":[]},{"type":"error","name":"InvalidAgentId","inputs":[]},{"type":"error","name":"NoCooldown","inputs":[]},{"type":"error","name":"NotStaked","inputs":[]},{"type":"error","name":"Unauthorized","inputs":[]}],"bytecode":{"object":"0x608060405234801561000f575f80fd5b50600180546001600160a01b031916331790555f60208190526658d15e176280007fad3228b676f7d3cd4284a5443f17f1962b36e491b30a40b2405849e597ba5fb55567016345785d8a00007fada5013122d395ba3c54772283fb069b10426056ef8ca54750cb9bb552a59e7d55600290526703782dace9d900007fabbb5caa7dda850e60932de0934eb1f9d0f59695050f761dc64e443e5030a56955610fb1806100b95f395ff3fe60806040526004361061011b575f3560e01c8063aac6aa9c1161009d578063d5a44f8611610062578063d5a44f861461034e578063d89135cd146103e9578063f2fde38b146103fe578063f776449a1461041d578063fccc28131461043c575f80fd5b8063aac6aa9c1461026f578063b87fcbff1461028e578063b88954f4146102cc578063baa51f86146102eb578063ce325bf814610323575f80fd5b80634b8df526116100e35780634b8df526146101c557806368a9f19c146101e45780636e99d52f146102035780638da5cb5b146102195780639ee679e814610250575f80fd5b8063034309f11461011f57806310087fb1146101475780632e1a7d4d1461015c57806336932db61461017b5780633d82e3c1146101a6575b5f80fd5b34801561012a575f80fd5b5061013460055481565b6040519081526020015b60405180910390f35b61015a610155366004610e43565b610451565b005b348015610167575f80fd5b5061015a610176366004610e6d565b6106a0565b348015610186575f80fd5b50610134610195366004610e84565b5f6020819052908152604090205481565b3480156101b1575f80fd5b5061015a6101c0366004610eba565b610851565b3480156101d0575f80fd5b5061015a6101df366004610edb565b610a90565b3480156101ef575f80fd5b5061015a6101fe366004610f03565b610acf565b34801561020e575f80fd5b5061013462093a8081565b348015610224575f80fd5b50600154610238906001600160a01b031681565b6040516001600160a01b03909116815260200161013e565b34801561025b575f80fd5b5061015a61026a366004610e6d565b610b1c565b34801561027a575f80fd5b5061015a610289366004610f03565b610bfa565b348015610299575f80fd5b506102bc6102a8366004610f03565b60036020525f908152604090205460ff1681565b604051901515815260200161013e565b3480156102d7575f80fd5b506101346102e6366004610e84565b610c44565b3480156102f6575f80fd5b506102bc610305366004610e6d565b5f90815260026020526040902060040154600160a01b900460ff1690565b34801561032e575f80fd5b5061013461033d366004610e6d565b5f9081526002602052604090205490565b348015610359575f80fd5b506103af610368366004610e6d565b600260208190525f918252604090912080546001820154928201546003830154600490930154919360ff9081169391926001600160a01b03811691600160a01b9091041686565b6040805196875260ff90951660208701529385019290925260608401526001600160a01b03166080830152151560a082015260c00161013e565b3480156103f4575f80fd5b5061013460045481565b348015610409575f80fd5b5061015a610418366004610f03565b610c85565b348015610428575f80fd5b5061015a610437366004610e6d565b610cd1565b348015610447575f80fd5b5061023861dead81565b815f036104715760405163e6394a7760e01b815260040160405180910390fd5b5f82815260026020526040902060040154600160a01b900460ff16156104aa57604051630ae3514d60e01b815260040160405180910390fd5b60ff81165f908152602081905260409020543410156104dc576040516378de4a6960e11b815260040160405180910390fd5b6040805160c0810182523480825260ff8085166020808501828152428688019081525f606088018181523360808a01908152600160a08b018181528e855260028089528d86209c518d559651918c01805492909a1660ff199092169190911790985592519389019390935591516003880155516004909601805494511515600160a01b026001600160a81b03199095166001600160a01b039790971696909617939093179094558152918290529181205490916105999190610f30565b9050801561064c576040515f90339083908381818185875af1925050503d805f81146105e0576040519150601f19603f3d011682016040523d82523d5f602084013e6105e5565b606091505b505090508061062b5760405162461bcd60e51b815260206004820152600d60248201526c1499599d5b990819985a5b1959609a1b60448201526064015b60405180910390fd5b5060ff82165f90815260208181526040808320548684526002909252909120555b60ff82165f818152602081815260409182902054825190815290810192909252339185917fdf5abd5a7abf883f38bef4c5ca75aea9e8b5ffa581b8b234a3e91da141e434d0910160405180910390a3505050565b5f8181526002602052604090206003015481904210156106e9575f818152600260205260409081902060030154905163c1ab61a160e01b81526004810191909152602401610622565b5f8281526002602052604090206004810154600160a01b900460ff16610721576040516273e5c360e31b815260040160405180910390fd5b60048101546001600160a01b0316331461074d576040516282b42960e81b815260040160405180910390fd5b80600301545f03610770576040516231bd6560e01b815260040160405180910390fd5b805460048201805460ff60a01b191690555f80835560038301819055604051339083908381818185875af1925050503d805f81146107c9576040519150601f19603f3d011682016040523d82523d5f602084013e6107ce565b606091505b50509050806108135760405162461bcd60e51b815260206004820152601160248201527015da5d1a191c985dd85b0819985a5b1959607a1b6044820152606401610622565b604051828152339086907fcf7d23a3cbe4e8b36ff82fd1b05b1b17373dc7804b4ebbd6e2356716ef2023729060200160405180910390a35050505050565b335f9081526003602052604090205460ff1661087f576040516282b42960e81b815260040160405180910390fd5b5f8281526002602052604090206004810154600160a01b900460ff166108b7576040516273e5c360e31b815260040160405180910390fd5b80545f6108c5600283610f49565b90505f6108d28284610f30565b6004808601805460ff60a01b191690555f808755815492935083926108f8908490610f68565b925050819055508160055f8282546109109190610f68565b90915550506040515f906001600160a01b0387169084908381818185875af1925050503d805f811461095d576040519150601f19603f3d011682016040523d82523d5f602084013e610962565b606091505b50509050806109b35760405162461bcd60e51b815260206004820152601b60248201527f57686973746c65626c6f77657220726577617264206661696c656400000000006044820152606401610622565b6040515f9061dead9084908381818185875af1925050503d805f81146109f4576040519150601f19603f3d011682016040523d82523d5f602084013e6109f9565b606091505b5050905080610a385760405162461bcd60e51b815260206004820152600b60248201526a109d5c9b8819985a5b195960aa1b6044820152606401610622565b60408051868152602081018690529081018490526001600160a01b0388169089907f39e51e8c8dbcd0b5e40d1ebb0bdafc8d87ffd8c21ef5e6c5bfc8ff4203beb06d9060600160405180910390a35050505050505050565b6001546001600160a01b03163314610aba576040516282b42960e81b815260040160405180910390fd5b60ff9091165f90815260208190526040902055565b6001546001600160a01b03163314610af9576040516282b42960e81b815260040160405180910390fd5b6001600160a01b03165f908152600360205260409020805460ff19166001179055565b5f8181526002602052604090206004810154600160a01b900460ff16610b54576040516273e5c360e31b815260040160405180910390fd5b60048101546001600160a01b03163314610b80576040516282b42960e81b815260040160405180910390fd5b4281600301541115610bad57806003015460405163c1ab61a160e01b815260040161062291815260200190565b610bba62093a8042610f68565b6003820181905560405190815282907f622ec52892a9917a9f66bd872232d3bea677db12565dd6da5f4bfc14607ec1d79060200160405180910390a25050565b6001546001600160a01b03163314610c24576040516282b42960e81b815260040160405180910390fd5b6001600160a01b03165f908152600360205260409020805460ff19169055565b5f8160ff165f03610c5757506032919050565b8160ff16600103610c6a575060c8919050565b8160ff16600203610c7e57506101f4919050565b505f919050565b6001546001600160a01b03163314610caf576040516282b42960e81b815260040160405180910390fd5b600180546001600160a01b0319166001600160a01b0392909216919091179055565b335f9081526003602052604090205460ff16610cff576040516282b42960e81b815260040160405180910390fd5b5f8181526002602052604090206004810154600160a01b900460ff16610d37576040516273e5c360e31b815260040160405180910390fd5b805460048201805460ff60a01b1981169091555f8084556040516001600160a01b0390921691829084908381818185875af1925050503d805f8114610d97576040519150601f19603f3d011682016040523d82523d5f602084013e610d9c565b606091505b5050905080610ded5760405162461bcd60e51b815260206004820152601860248201527f47726164756174696f6e20726566756e64206661696c656400000000000000006044820152606401610622565b847facfdce92da76539f5af2efc3aa76d42a7a92af4d723a23d144f58fdf1472921e84604051610e1f91815260200190565b60405180910390a25050505050565b803560ff81168114610e3e575f80fd5b919050565b5f8060408385031215610e54575f80fd5b82359150610e6460208401610e2e565b90509250929050565b5f60208284031215610e7d575f80fd5b5035919050565b5f60208284031215610e94575f80fd5b610e9d82610e2e565b9392505050565b80356001600160a01b0381168114610e3e575f80fd5b5f8060408385031215610ecb575f80fd5b82359150610e6460208401610ea4565b5f8060408385031215610eec575f80fd5b610ef583610e2e565b946020939093013593505050565b5f60208284031215610f13575f80fd5b610e9d82610ea4565b634e487b7160e01b5f52601160045260245ffd5b81810381811115610f4357610f43610f1c565b92915050565b5f82610f6357634e487b7160e01b5f52601260045260245ffd5b500490565b80820180821115610f4357610f43610f1c56fea26469706673582212201298d695f4d915a497332596babd1714163bc0fae234b97af30502f92847bc4f64736f6c63430008180033","linkReferences":{}},"methodIdentifiers":{"BURN_ADDRESS()":"fccc2813","COOLDOWN_PERIOD()":"6e99d52f","addSlasher(address)":"68a9f19c","getRequiredStakeUSD(uint8)":"b88954f4","getStake(uint256)":"ce325bf8","graduate(uint256)":"f776449a","isStaked(uint256)":"baa51f86","owner()":"8da5cb5b","removeSlasher(address)":"aac6aa9c","requestWithdrawal(uint256)":"9ee679e8","requiredStake(uint8)":"36932db6","slash(uint256,address)":"3d82e3c1","slashers(address)":"b87fcbff","stake(uint256,uint8)":"10087fb1","stakes(uint256)":"d5a44f86","totalBurned()":"d89135cd","totalWhistleblowerPaid()":"034309f1","transferOwnership(address)":"f2fde38b","updateRequiredStake(uint8,uint256)":"4b8df526","withdraw(uint256)":"2e1a7d4d"},"id":19}