{"abi":[{"type":"constructor","inputs":[],"stateMutability":"nonpayable"},{"type":"function","name":"addAttestor","inputs":[{"name":"attestor","type":"address","internalType":"address"}],"outputs":[],"stateMutability":"nonpayable"},{"type":"function","name":"addReputationDelta","inputs":[{"name":"agentId","type":"uint256","internalType":"uint256"},{"name":"delta","type":"uint256","internalType":"uint256"}],"outputs":[],"stateMutability":"nonpayable"},{"type":"function","name":"agentCount","inputs":[],"outputs":[{"name":"","type":"uint256","internalType":"uint256"}],"stateMutability":"view"},{"type":"function","name":"attestors","inputs":[{"name":"","type":"address","internalType":"address"}],"outputs":[{"name":"","type":"bool","internalType":"bool"}],"stateMutability":"view"},{"type":"function","name":"deactivateAgent","inputs":[{"name":"agentId","type":"uint256","internalType":"uint256"}],"outputs":[],"stateMutability":"nonpayable"},{"type":"function","name":"getAgent","inputs":[{"name":"agentId","type":"uint256","internalType":"uint256"}],"outputs":[{"name":"","type":"tuple","internalType":"struct AgentRegistry.Agent","components":[{"name":"id","type":"uint256","internalType":"uint256"},{"name":"agentWallet","type":"address","internalType":"address"},{"name":"name","type":"string","internalType":"string"},{"name":"capabilities","type":"string","internalType":"string"},{"name":"metadataURI","type":"string","internalType":"string"},{"name":"reputationScore","type":"uint256","internalType":"uint256"},{"name":"registeredAt","type":"uint256","internalType":"uint256"},{"name":"active","type":"bool","internalType":"bool"}]}],"stateMutability":"view"},{"type":"function","name":"getAgentByWallet","inputs":[{"name":"wallet","type":"address","internalType":"address"}],"outputs":[{"name":"","type":"uint256","internalType":"uint256"}],"stateMutability":"view"},{"type":"function","name":"getReputation","inputs":[{"name":"agentId","type":"uint256","internalType":"uint256"}],"outputs":[{"name":"","type":"uint256","internalType":"uint256"}],"stateMutability":"view"},{"type":"function","name":"isActive","inputs":[{"name":"agentId","type":"uint256","internalType":"uint256"}],"outputs":[{"name":"","type":"bool","internalType":"bool"}],"stateMutability":"view"},{"type":"function","name":"owner","inputs":[],"outputs":[{"name":"","type":"address","internalType":"address"}],"stateMutability":"view"},{"type":"function","name":"reactivateAgent","inputs":[{"name":"agentId","type":"uint256","internalType":"uint256"}],"outputs":[],"stateMutability":"nonpayable"},{"type":"function","name":"registerAgent","inputs":[{"name":"name","type":"string","internalType":"string"},{"name":"capabilities","type":"string","internalType":"string"},{"name":"metadataURI","type":"string","internalType":"string"}],"outputs":[{"name":"agentId","type":"uint256","internalType":"uint256"}],"stateMutability":"nonpayable"},{"type":"function","name":"removeAttestor","inputs":[{"name":"attestor","type":"address","internalType":"address"}],"outputs":[],"stateMutability":"nonpayable"},{"type":"function","name":"transferOwnership","inputs":[{"name":"newOwner","type":"address","internalType":"address"}],"outputs":[],"stateMutability":"nonpayable"},{"type":"function","name":"updateAgent","inputs":[{"name":"agentId","type":"uint256","internalType":"uint256"},{"name":"name","type":"string","internalType":"string"},{"name":"capabilities","type":"string","internalType":"string"},{"name":"metadataURI","type":"string","internalType":"string"}],"outputs":[],"stateMutability":"nonpayable"},{"type":"function","name":"updateReputation","inputs":[{"name":"agentId","type":"uint256","internalType":"uint256"},{"name":"newScore","type":"uint256","internalType":"uint256"}],"outputs":[],"stateMutability":"nonpayable"},{"type":"event","name":"AgentRegistered","inputs":[{"name":"agentId","type":"uint256","indexed":true,"internalType":"uint256"},{"name":"agentWallet","type":"address","indexed":true,"internalType":"address"},{"name":"name","type":"string","indexed":false,"internalType":"string"},{"name":"timestamp","type":"uint256","indexed":false,"internalType":"uint256"}],"anonymous":false},{"type":"event","name":"AgentStatusChanged","inputs":[{"name":"agentId","type":"uint256","indexed":true,"internalType":"uint256"},{"name":"active","type":"bool","indexed":false,"internalType":"bool"}],"anonymous":false},{"type":"event","name":"AgentUpdated","inputs":[{"name":"agentId","type":"uint256","indexed":true,"internalType":"uint256"},{"name":"name","type":"string","indexed":false,"internalType":"string"}],"anonymous":false},{"type":"event","name":"AttestorAdded","inputs":[{"name":"attestor","type":"address","indexed":true,"internalType":"address"}],"anonymous":false},{"type":"event","name":"AttestorRemoved","inputs":[{"name":"attestor","type":"address","indexed":true,"internalType":"address"}],"anonymous":false},{"type":"event","name":"OwnershipTransferred","inputs":[{"name":"previousOwner","type":"address","indexed":true,"internalType":"address"},{"name":"newOwner","type":"address","indexed":true,"internalType":"address"}],"anonymous":false},{"type":"event","name":"ReputationUpdated","inputs":[{"name":"agentId","type":"uint256","indexed":true,"internalType":"uint256"},{"name":"newScore","type":"uint256","indexed":false,"internalType":"uint256"},{"name":"attestor","type":"address","indexed":true,"internalType":"address"}],"anonymous":false},{"type":"error","name":"AgentAlreadyRegistered","inputs":[{"name":"wallet","type":"address","internalType":"address"}]},{"type":"error","name":"AgentNotActive","inputs":[{"name":"agentId","type":"uint256","internalType":"uint256"}]},{"type":"error","name":"AgentNotRegistered","inputs":[{"name":"agentId","type":"uint256","internalType":"uint256"}]},{"type":"error","name":"InvalidName","inputs":[]},{"type":"error","name":"NotAgentOwner","inputs":[{"name":"agentId","type":"uint256","internalType":"uint256"},{"name":"caller","type":"address","internalType":"address"}]},{"type":"error","name":"NotAttestor","inputs":[{"name":"caller","type":"address","internalType":"address"}]},{"type":"error","name":"Unauthorized","inputs":[]}],"bytecode":{"object":"0x608060405234801561000f575f80fd5b505f80546001600160a01b031916331790556113838061002e5f395ff3fe608060405234801561000f575f80fd5b50600436106100fb575f3560e01c806389370d8b11610093578063b7dc128411610063578063b7dc128414610250578063e0cae63514610259578063f2fde38b1461026c578063fd6103171461027f575f80fd5b806389370d8b146101ed5780638da5cb5b146102005780639e4cd8821461022a578063b39120231461023d575f80fd5b806356a2d660116100ce57806356a2d6601461017e57806375d03bdf1461019f57806382afd23b146101b257806385f8dd8d146101c5575f80fd5b80630675f763146100ff57806311ba6b4a146101145780631338e957146101275780632de5aaf71461015e575b5f80fd5b61011261010d366004610de9565b610292565b005b610112610122366004610e09565b610385565b610149610135366004610e20565b60046020525f908152604090205460ff1681565b60405190151581526020015b60405180910390f35b61017161016c366004610e09565b61043f565b6040516101559190610e90565b61019161018c366004610f87565b6106d0565b604051908152602001610155565b6101126101ad36600461101a565b610904565b6101496101c0366004610e09565b610a44565b6101916101d3366004610e20565b6001600160a01b03165f9081526003602052604090205490565b6101916101fb366004610e09565b610a8e565b5f54610212906001600160a01b031681565b6040516001600160a01b039091168152602001610155565b610112610238366004610de9565b610ad5565b61011261024b366004610e20565b610bd5565b61019160015481565b610112610267366004610e20565b610c46565b61011261027a366004610e20565b610cba565b61011261028d366004610e09565b610d32565b335f9081526004602052604090205460ff166102c857604051636ae28ec960e01b81523360048201526024015b60405180910390fd5b818015806102d7575060015481115b156102f8576040516365d0698f60e01b8152600481018290526024016102bf565b5f83815260026020526040902060070154839060ff1661032e576040516398a4d66760e01b8152600481018290526024016102bf565b5f848152600260205260409081902060050184905551339085907fe8565f822180e4320bd3a538a0145623d66c2944e24079706103f4f9ee41eb9f906103779087815260200190565b60405180910390a350505050565b80801580610394575060015481115b156103b5576040516365d0698f60e01b8152600481018290526024016102bf565b5f82815260026020526040902060018101546001600160a01b031633146103f8576040516304ffad3160e21b8152600481018490523360248201526044016102bf565b60078101805460ff191690556040515f815283907f5b7fa91ee392647b777096db0d386dc7cb7a3bfbc86ae6a10e0500de3a5ad02f906020015b60405180910390a2505050565b61048d6040518061010001604052805f81526020015f6001600160a01b031681526020016060815260200160608152602001606081526020015f81526020015f81526020015f151581525090565b8180158061049c575060015481115b156104bd576040516365d0698f60e01b8152600481018290526024016102bf565b5f838152600260208181526040928390208351610100810185528154815260018201546001600160a01b03169281019290925291820180549193840191610503906110b6565b80601f016020809104026020016040519081016040528092919081815260200182805461052f906110b6565b801561057a5780601f106105515761010080835404028352916020019161057a565b820191905f5260205f20905b81548152906001019060200180831161055d57829003601f168201915b50505050508152602001600382018054610593906110b6565b80601f01602080910402602001604051908101604052809291908181526020018280546105bf906110b6565b801561060a5780601f106105e15761010080835404028352916020019161060a565b820191905f5260205f20905b8154815290600101906020018083116105ed57829003601f168201915b50505050508152602001600482018054610623906110b6565b80601f016020809104026020016040519081016040528092919081815260200182805461064f906110b6565b801561069a5780601f106106715761010080835404028352916020019161069a565b820191905f5260205f20905b81548152906001019060200180831161067d57829003601f168201915b5050509183525050600582015460208201526006820154604082015260079091015460ff16151560609091015291505b50919050565b5f8581036106f15760405163430f13b360e01b815260040160405180910390fd5b335f908152600360205260409020541561072057604051630654cb8760e11b81523360048201526024016102bf565b50600180548101908190556040805161010081018252828152336020808301919091528251601f8a0182900482028101820184528981529192830191908a908a90819084018382808284375f92019190915250505090825250604080516020601f8901819004810282018101909252878152918101919088908890819084018382808284375f92019190915250505090825250604080516020601f8701819004810282018101909252858152918101919086908690819084018382808284375f920182905250938552505060646020808501919091524260408086019190915260016060909501859052868452600280835293819020865181559186015194820180546001600160a01b0319166001600160a01b03909616959095179094559284015191830191610852915082611148565b50606082015160038201906108679082611148565b506080820151600482019061087c9082611148565b5060a0820151600582015560c0820151600682015560e0909101516007909101805460ff1916911515919091179055335f81815260036020526040908190208390555182907fc29f819ac362ff9c94de06666235808451aafd8894a2dffb86a080a965efeae3906108f2908b908b904290611230565b60405180910390a39695505050505050565b86801580610913575060015481115b15610934576040516365d0698f60e01b8152600481018290526024016102bf565b5f88815260026020526040902060070154889060ff1661096a576040516398a4d66760e01b8152600481018290526024016102bf565b5f89815260026020526040902060018101546001600160a01b031633146109ad576040516304ffad3160e21b8152600481018b90523360248201526044016102bf565b5f8890036109ce5760405163430f13b360e01b815260040160405180910390fd5b600281016109dd898b83611253565b50600381016109ed878983611253565b50600481016109fd858783611253565b50897ff0677ec077e6eec8e31d4e8be0cb20b797f3a9dc243e2ddc641532c0ff4120368a8a604051610a3092919061130d565b60405180910390a250505050505050505050565b5f81801580610a54575060015481115b15610a75576040516365d0698f60e01b8152600481018290526024016102bf565b50505f9081526002602052604090206007015460ff1690565b5f81801580610a9e575060015481115b15610abf576040516365d0698f60e01b8152600481018290526024016102bf565b50505f9081526002602052604090206005015490565b335f9081526004602052604090205460ff16610b0657604051636ae28ec960e01b81523360048201526024016102bf565b81801580610b15575060015481115b15610b36576040516365d0698f60e01b8152600481018290526024016102bf565b5f83815260026020526040902060070154839060ff16610b6c576040516398a4d66760e01b8152600481018290526024016102bf565b5f8481526002602052604081206005810154909190610b8c908690611328565b60058301819055604051818152909150339087907fe8565f822180e4320bd3a538a0145623d66c2944e24079706103f4f9ee41eb9f9060200160405180910390a3505050505050565b5f546001600160a01b03163314610bfe576040516282b42960e81b815260040160405180910390fd5b6001600160a01b0381165f81815260046020526040808220805460ff19169055517f7b1e5155c9ac76eaa3c56fcf63a3383cd696a6fa84c49901c7ae374c0a5086129190a250565b5f546001600160a01b03163314610c6f576040516282b42960e81b815260040160405180910390fd5b6001600160a01b0381165f81815260046020526040808220805460ff19166001179055517f945c4a21d3fce955d17e31fcc471734b3d754c032b3805b02fe75d89c29b2a3a9190a250565b5f546001600160a01b03163314610ce3576040516282b42960e81b815260040160405180910390fd5b5f80546001600160a01b038381166001600160a01b0319831681178455604051919092169283917f8be0079c531659141344cd1fd0a4f28419497f9722a3daafe3b4186f6b6457e09190a35050565b80801580610d41575060015481115b15610d62576040516365d0698f60e01b8152600481018290526024016102bf565b5f82815260026020526040902060018101546001600160a01b03163314610da5576040516304ffad3160e21b8152600481018490523360248201526044016102bf565b60078101805460ff1916600190811790915560405190815283907f5b7fa91ee392647b777096db0d386dc7cb7a3bfbc86ae6a10e0500de3a5ad02f90602001610432565b5f8060408385031215610dfa575f80fd5b50508035926020909101359150565b5f60208284031215610e19575f80fd5b5035919050565b5f60208284031215610e30575f80fd5b81356001600160a01b0381168114610e46575f80fd5b9392505050565b5f81518084525f5b81811015610e7157602081850181015186830182015201610e55565b505f602082860101526020601f19601f83011685010191505092915050565b60208152815160208201525f6020830151610eb660408401826001600160a01b03169052565b506040830151610100806060850152610ed3610120850183610e4d565b91506060850151601f1980868503016080870152610ef18483610e4d565b935060808701519150808685030160a087015250610f0f8382610e4d565b92505060a085015160c085015260c085015160e085015260e0850151610f388286018215159052565b5090949350505050565b5f8083601f840112610f52575f80fd5b50813567ffffffffffffffff811115610f69575f80fd5b602083019150836020828501011115610f80575f80fd5b9250929050565b5f805f805f8060608789031215610f9c575f80fd5b863567ffffffffffffffff80821115610fb3575f80fd5b610fbf8a838b01610f42565b90985096506020890135915080821115610fd7575f80fd5b610fe38a838b01610f42565b90965094506040890135915080821115610ffb575f80fd5b5061100889828a01610f42565b979a9699509497509295939492505050565b5f805f805f805f6080888a031215611030575f80fd5b87359650602088013567ffffffffffffffff8082111561104e575f80fd5b61105a8b838c01610f42565b909850965060408a0135915080821115611072575f80fd5b61107e8b838c01610f42565b909650945060608a0135915080821115611096575f80fd5b506110a38a828b01610f42565b989b979a50959850939692959293505050565b600181811c908216806110ca57607f821691505b6020821081036106ca57634e487b7160e01b5f52602260045260245ffd5b634e487b7160e01b5f52604160045260245ffd5b601f82111561114357805f5260205f20601f840160051c810160208510156111215750805b601f840160051c820191505b81811015611140575f815560010161112d565b50505b505050565b815167ffffffffffffffff811115611162576111626110e8565b6111768161117084546110b6565b846110fc565b602080601f8311600181146111a9575f84156111925750858301515b5f19600386901b1c1916600185901b178555611200565b5f85815260208120601f198616915b828110156111d7578886015182559484019460019091019084016111b8565b50858210156111f457878501515f19600388901b60f8161c191681555b505060018460011b0185555b505050505050565b81835281816020850137505f828201602090810191909152601f909101601f19169091010190565b604081525f611243604083018587611208565b9050826020830152949350505050565b67ffffffffffffffff83111561126b5761126b6110e8565b61127f8361127983546110b6565b836110fc565b5f601f8411600181146112b0575f85156112995750838201355b5f19600387901b1c1916600186901b178355611140565b5f83815260208120601f198716915b828110156112df57868501358255602094850194600190920191016112bf565b50868210156112fb575f1960f88860031b161c19848701351681555b505060018560011b0183555050505050565b602081525f611320602083018486611208565b949350505050565b8082018082111561134757634e487b7160e01b5f52601160045260245ffd5b9291505056fea264697066735822122025bb6bcd7c1dae8e6e32db4011fd371ff44b0337b8fdd6b242d4fb8f4d2ca6f864736f6c63430008180033","linkReferences":{}},"methodIdentifiers":{"addAttestor(address)":"e0cae635","addReputationDelta(uint256,uint256)":"9e4cd882","agentCount()":"b7dc1284","attestors(address)":"1338e957","deactivateAgent(uint256)":"11ba6b4a","getAgent(uint256)":"2de5aaf7","getAgentByWallet(address)":"85f8dd8d","getReputation(uint256)":"89370d8b","isActive(uint256)":"82afd23b","owner()":"8da5cb5b","reactivateAgent(uint256)":"fd610317","registerAgent(string,string,string)":"56a2d660","removeAttestor(address)":"b3912023","transferOwnership(address)":"f2fde38b","updateAgent(uint256,string,string,string)":"75d03bdf","updateReputation(uint256,uint256)":"0675f763"},"id":19}